:020000022000DC
:1060000000F000206D630200556302005763020038
:10601000596302005B6302005D6302000000000040
:106020000000000000000000000000005F630200AC
:106030006163020000000000636302006563020008
:106040006763020067630200676302006763020020
:106050006763020067630200E56E02006763020087
:1060600067630200676302005D81030067630200EB
:1060700067630200676302006763020067630200F0
:1060800067630200A519040041BD020067630200B6
:10609000091A040067630200BDB1030067630200D0
:1060A00067630200676302006763020067630200C0
:1060B0006763020067630200000000000000000048
:1060C00067630200676302006763020067630200A0
:1060D000676302006763020067630200000000005C
:1060E00000000000000000000000000000000000B0
:1060F00000000000000000000000000000000000A0
:10610000000000000000000000000000000000008F
:10611000000000000000000000000000000000007F
:10612000000000000000000000000000000000006F
:10613000000000000000000000000000000000005F
:10614000000000000000000000000000000000004F
:10615000000000000000000000000000000000003F
:10616000000000000000000000000000000000002F
:10617000000000000000000000000000000000001F
:10618000000000000000000000000000000000000F
:1061900000000000000000000000000000000000FF
:1061A00000000000000000000000000000000000EF
:1061B00000000000000000000000000000000000DF
:1061C00000000000000000000000000000000000CF
:1061D00000000000000000000000000000000000BF
:1061E00000000000000000000000000000000000AF
:1061F000000000000000000000000000000000009F
:10620000344935480A1A02D0072291438D46334952
:1062100033480A1A06D00722914381F309880222E3
:1062200082F314882F483049304A00F042F8304851
:106230003049314A00F03DF830483149314A00F0E8
:1062400038F831483149324A00F033F831483249A0
:10625000324A00F02EF832483249334A00F029F829
:1062600032483349334A00F024F833483349002296
:1062700000F02AF832483349002200F025F832486D
:106280003249091A082902DB0022026041601F48D6
:106290001F49884205D00268043003B4904703BC0C
:1062A000F7E700208646EC4600200021284A904768
:1062B000FEE7884207D0521A05D0037801300B70F0
:1062C0000131013AF9D17047884202D002700130A1
:1062D000FAE7704700F0002000E8002000F00020FE
:1062E00000F00020783B0400A02D0020B82E0020F4
:1062F000A4630200A4630200CA1E0400783B0400E9
:10630000A02D0020A02D0020F41F0400F41F040085
:10631000F41F0400F41F0400F41F0400F41F040021
:10632000F41F0400F41F0400763B0400903C0400BA
:10633000B82E0020B82E0020B82E00206C59002066
:106340006C5900206C5900206C5900206C5D0020B5
:106350000D6A0200FEE7FEE7FEE7FEE7FEE7FEE766
:10636000FEE7FEE7FEE7FEE7704700BF094880470B
:1063700009484FF007018843854608488047084888
:10638000016841F470010160BFF34F8FBFF36F8F5D
:10639000FFF736BF6963020000F00020E9B7030091
:0463A00088ED00E0A4
:1063A40041DF70470C4B1B6813F4804F03D00B4B39
:1063B4001B68012B00DC704700B583B0084BD3F891
:1063C4000435084A009285220749022006F09AFD06
:1063D40003B05DF804FB00BF1C2E0020182E002023
:1063E40000100140702004006920040010B586B03C
:1063F4005068E0B11A4B1B6813F4804F03D0194B5B
:106404001B68032B01DC06B010BD174BD3F8043511
:106414004988147852780490039202940191134AA3
:106424000092AD221249042006F06CFDEBE70C4B00
:106434001B6813F4804FE6D00A4B1B68032BE2DD84
:10644400094BD3F804354988127802920191094A1C
:106454000092B2220649042006F054FDD3E700BF9F
:106464001C2E0020182E002000100140F4200400EF
:10647400692004004821040000B583B0012A1FD01C
:1064840053B24BB1022A35D0244AA021032015F07F
:10649400D3FA03B05DF804FB214B1B6813F4804F5F
:1064A400F7D0204B1B68032BF3DD1F4BD3F80435C7
:1064B4001E4A009293221E49042006F023FDE8E7B9
:1064C400062232214FF4F01000F07AFC144B1B68C2
:1064D40013F4804FDDD0134B1B68032BD9DD124B13
:1064E400D3F80435134A009298221149042006F087
:1064F40009FDCEE70A4B1B6813F4804FC9D0094B42
:106504001B68032BC5DD084BD3F804350A4A0092F7
:106514009C220749042006F0F5FCBAE70C2004008D
:106524001C2E0020182E0020001001409020040092
:1065340069200400B0200400D020040030B587B0E6
:106544000446574B1B6813F4804F03D0554B1B680C
:10655400032B05DC032C12D8DFE804F00E2A0E2AE4
:10656400514BD3F804350190504A0092C822504947
:10657400042006F0C7FCEDE701238DF814304D4AE2
:106584001378591C11708DF8153032230493642349
:106594000393434B1B6813F4804F03D0414B1B6898
:1065A400032B09DC032C4DD8DFE804F0141430303D
:1065B40000238DF81430E2E73B4BD3F804359DF803
:1065C400142001923C4A0092E3223949042006F047
:1065D40099FCE7E7394D28880EF054FC03AA05A975
:1065E40028461AF03BFE05469DF81410112000F0D1
:1065F400CDFB112D4BD8DFE805F0254A4A4A164A4F
:106604004A34164A4A4A4A4A4A4A4A16022303AABA
:1066140005A92B481AF060FE05469DF814101220B7
:1066240000F0B4FBE5E71E4B1B6813F4804F03D066
:106634001C4B1B68032B07DC062232214FF4F0109D
:1066440000F0BEFB07B030BD174BD3F804350194FE
:106654001C4A009240F201121549042006F052FC33
:10666400EAE70F4B1B6813F4804FEBD00D4B1B680C
:10667400032BE7DD0C4BD3F804350194124A009246
:1066840040F20D120A49042006F03CFCDAE7002D22
:10669400D8D00E4A40F21111284615F0CDF9D1E7B1
:1066A4001C2E0020182E002000100140742104002C
:1066B40069200400212F002088210400B82E002026
:1066C400EC2E0020A4210400BC2104000C200400B2
:1066D4003038032800D9704708B5FFF72FFF08BDED
:1066E40000B58BB02022002101A81BF087FB0123F9
:1066F4008DF8043007238DF8073006238DF80C300D
:10670400084B0593084B0993084901A809F072FF47
:1067140010B90BB05DF804FB054A4FF49C7115F0F9
:106724008BF9F6E7B9680200D5670200202F002034
:106734000C20040000B583B01D4A042146F2010078
:1067440006F0C4FB1B4B1B6813F4804F03D01A4B99
:106754001B68032B13DC1BF059F9E0B900F074FB40
:10676400164800F091FBE0B900F05AFD00F074FD0A
:1067740000F0A0FDFFF7B4FF03B05DF804FB104B7D
:10678400D3F804350F4A00924FF49F720E49042047
:1067940006F0B8FBDFE70D4A4FF4A07115F04CF991
:1067A400DCE70A4A4FF4A27115F046F9DCE700BFB2
:1067B400A5CE02001C2E0020182E002041650200E8
:1067C40000100140F4210400692004000C2004009E
:1067D40010B582B0194B1B6813F4804F03D0184BCB
:1067E4001B68032B01DC002411E0164BD3F804359D
:1067F400154A009240F221121449042006F082FB4B
:10680400F1E7134A4FF4957115F016F90134012C90
:1068140012D8104B342000FB04300F4B03630023C9
:10682400836280F82C3080F82D30611CC9B21AF0D4
:10683400DBFC0028EAD0E4E702B010BD1C2E0020E7
:10684400182E0020001001402422040069200400B6
:106854000C200400B82E0020E821040000B583B009
:106864000F4B1B6813F4804F03D00E4B1B68032B94
:106874000ADC0322C8214FF4F01000F0A1FA09F059
:1068840007FF03B05DF804FB074BD3F80435074A50
:106894000092B8220649042006F034FBE9E700BF61
:1068A4001C2E0020182E0020001001404422040059
:1068B4006920040008B503781C2B00D008BDFFF73D
:1068C400CDFFFBE730B587B06421194800F0F8F933
:1068D400184B1B789BB100F00BFE00F037FB09F05E
:1068E400C9FEF8B900214FF4F01000F05EFA02225C
:1068F400C8214FF4F01000F063FA07B030BD6C46C5
:106904000D4D0FCD0FC495E8030084E803006846DD
:1069140000F074F90028DED0084A40F2611115F045
:106924008BF8D8E7054A4FF4B37115F085F8D9E729
:10693400D5660200202F0020F41F04000C20040060
:1069440010B5044600214FF4F01000F02EFA04EBC9
:106954008404620032214FF4C01000F031FA10BDFB
:1069640008B500F063FA08BD00B585B0204B1B687C
:1069740013F4804F03D01F4B1B68032B1FDC00F064
:106984006BFC00F097FC03A80FF096FD184B1B68F6
:1069940013F4804F03D0174B1B68032B1ADC00F051
:1069A40045FA00214FF4F01000F0FFF90422C82149
:1069B4004FF4F01000F004FA05B05DF804FB0E4B40
:1069C400D3F804350D4A009270220D49042006F0D4
:1069D40099FAD4E7084BD3F80435BDF80C2001929A
:1069E400084A00927B220649042006F08BFAD6E777
:1069F4001C2E0020182E00200010014060220400EC
:106A0400692004007C22040008B5FFF793FEFFF719
:106A140059FFFFF7C5FCFCE72B4B1B78002B52D02A
:106A240000B585B0012804D0032845D005B05DF831
:106A340004FB0023029302A9012014F06BFA40BB6B
:106A440002A814F0B9FA38BB0123039303A90DF18A
:106A5400060010F0ABFA10BBBDF806000FF0F4FE10
:106A64000DF1050110F090F8E0B90AF0BBFF9DF8B4
:106A7400051000200BF082FAB8B903F033FFC0B957
:106A8400114B00221A70114B1B68002BCED0984773
:106A9400CCE714F0C3FFD3E714F0C0FFD4E714F03D
:106AA400BDFFD9E714F0BAFFDFE7784600F0E2FC57
:106AB400E3E714F0B3FFE3E714F0F4FA0028B5D0E9
:106AC40014F0ACFFB2E77047242F0020282F0020D9
:106AD40008B5064B01221A70054803F06DFF03F058
:106AE4004DFF00B908BD14F099FFFBE7242F0020E7
:106AF400A02D002008B503781C2B00D008BD074B3F
:106B04001B78002BFAD014F011FB18B9044803F0D9
:106B140057FFF3E714F082FFF8E700BF242F0020AB
:106B2400A02D002008B50849084815F01DFC0346AF
:106B340008B1184608BD0323002205490969054820
:106B440015F02EFC0346F4E7402F0020AC32002061
:106B5400282F00207831002008B50378023B082B49
:106B64003FD8DFE803F01C05113E3E2C3E3E3600C4
:106B74001E4B5B68002B34D0007A002831D01C4AAD
:106B84000121117098472CE0184B9B684BB3184AAD
:106B9400127832B3164A00211170984721E0154B40
:106BA4001B784BB9114BDB681BB1114A00211170E2
:106BB4009847FFF7B7FF14E0FFF78AFF11E01022B0
:106BC4000A4B59690C4815F07BFC50B114F026FFB0
:106BD40007E08168C06809F095FC18B9054B0122EB
:106BE4001A7008BD14F01AFFF8E700BF282F002020
:106BF400222F0020232F00207831002070B586B08A
:106C040004461F4A03AB07CA03C323F8022B120C22
:106C14001A701C4E35460FCC0FC594E8030085E866
:106C24000300736953B3184B009303AB174A184915
:106C3400184815F055FB034610B1184606B070BD50
:106C4400154817F015F80146124815F075FB034670
:106C54000028F2D1114817F0CDF903460028ECD1F1
:106C64000E4817F0FDF901460A4815F065FB034686
:106C74000028E2D1FFF756FF0346DEE70723DCE7EF
:106C8400C0220400282F00205D6B0200402F00204A
:106C9400AC32002078310020602F00202831002001
:106CA40008B5064B1B683BB112F0CCFB002803DB94
:106CB400024B1B689847F7E708BD00BFEC32002081
:106CC40010B50C46144B1860144A012114481AF0EC
:106CD400D5FE78B9610CE00341F26F7200238B4258
:106CE40008BF82420BD24FF47A7200231AF016FFC7
:106CF400014605E00B4A4A2114F09EFEEAE705210D
:106D0400002209481AF0D0FE00B910BD054A4B21F3
:106D140014F092FEF9E700BFEC320020A56C0200EB
:106D2400CC220400D0220400F032002008B5134B1A
:106D34001B6873B14FF0A042D2F8043510490968BA
:106D44004B40C2F804350D4A1368013B136023B16C
:106D540008BD002014F062FEECE70A481AF0C2FEF7
:106D64004FF0A042D2F804350549096823EA01032B
:106D7400054909680B43C2F80435E9E710330020DC
:106D840014330020183300204033002031B1012394
:106D940083404FF0A042C2F80C3570470123834072
:106DA4004FF0A042C2F80835704721B14FF0A0431C
:106DB400C3F80C0570474FF0A043C3F808057047AB
:106DC4005AB338B51346132900D838BD134A106096
:106DD4005B00013B124A13604FF0A043D3F8043523
:106DE4001840104B186000254C0CC8034FF47A72FD
:106DF400002310F5FA7044EB05011AF08FFE2A46C1
:106E0400014609481AF050FE0028DED1034B1A68E7
:106E14004FF0A043C3F80C25D7E770471433002084
:106E240010330020403300201833002008B50448F4
:106E34001AF058FE0021034B1868FFF7B6FF08BD8F
:106E4400183300201433002008B511230BE04FF051
:106E5400A04103F5E072032041F8220001229A4088
:106E6400C1F808250133142BF1D9054A012105483D
:106E74001AF004FE00B908BD14F0D0FDFBE700BF12
:106E8400316D02002C230400F0B1104A106000237D
:106E940009E00F4AD25C02F5E0724FF0A0410D48C0
:106EA40041F822000133032BF3D90B4B4FF000427E
:106EB400C3F804230020C3F87C01084BC02283F8E4
:106EC400062340221A6070470E2070473833002092
:106ED400302304000C0003000060004000E100E0E7
:106EE40010B50024144BC3F87C4103E0D11A14E01C
:106EF4000134E4B2032C1ED84FF0A043D3F810257C
:106F04000E4B195D01238B409343F1D00C4B1B684E
:106F14000C4AD2F80425991AE8D443F2333399423F
:106F2400E6D9084BD3F80425054B1A60064B1B68B9
:106F340020469847DCE710BD006000403023040081
:106F44003C3300200010014038330020002869D071
:106F54002DE9F043CFB00646334B1B6813F4804F42
:106F640003D0324B1B68032B0BDC2F4B1B6813F431
:106F7400804F03D02D4B1B68032B2ADC4FB0BDE898
:106F8400F08300230F2B0FD8F25C29490D681009F8
:106F94005900285C0DAC04F8130002F00F02013113
:106FA400AA5C62540133EDE70DAA00238DF8543036
:106FB40003F1804303F58833D3F8043502921D4A64
:106FC40001921D4A009241221C49042005F09AFFB7
:106FD400CBE71B4BD3F80435B288F188307A747A46
:106FE400B57AF77A96F80CC096F80DE096F80E800C
:106FF40096F80F90CDF82C90CDF82880CDF824E0A9
:10700400CDF820C007970695059404900391029249
:10701400326801920B4A009246220849042005F086
:1070240071FFABE7704700BF1C2E0020182E002014
:10703400202E002098230400AC23040084230400A1
:1070440000100140B423040072DF704773DF7047FF
:1070540074DF70472DE9F047A2B007468846914691
:10706400314C0026C4F80660E68130490B78C3EB46
:1070740043102F4D054425602E4A0244A2601F226E
:10708400A280A281013303F001030B704FF03C0A8C
:107094005246314613A81AF0B1FE06238DF84F303C
:1070A400ADF8487001238DF84A30ADF85C3012AA6F
:1070B4001892ADF83C70ADF84090CDF844800DEBDB
:1070C4000A021D928DF878305246314668461AF00D
:1070D40095FE02238DF80030221D294613A813F0D3
:1070E4000DFE90B9104B03F10C029968684613F039
:1070F40005FE68B9104A0C491048FFF7A5FF082897
:1071040009D070B922B0BDE8F08714F087FCE9E734
:1071140014F084FCEEE7002203490848FFF794FFCB
:10712400EFE714F07BFCEDE78833002044330020C4
:107134004833002098330020B02D0020AC2D0020CF
:10714400B0F5202F04D2074BA3FB0023DB0801E09A
:107154004FF6FF7308B103B90123034A9381916089
:10716400704700BFCDCCCCCCB02D002008B5012198
:10717400054B1878FFF76AFF18B9002004F0E6FA07
:1071840008BD14F04BFCF8E7AC2D002008B5044B07
:107194001878FFF75DFF00B908BD14F03FFCFBE76A
:1071A400AC2D002076DF70477ADF70477CDF7047B4
:1071B40008B514F033FC08BD08B503F005FC08BDA0
:1071C40000B583B0037823B1012B0BD003B05DF875
:1071D40004FB3B214088FFF7E5FF0028F6D014F0BC
:1071E4001DFCF3E7094B1B6813F4804FEED0084BEA
:1071F4001B68032BEADD074BD3F80435064A0092DB
:1072040068220649042005F07DFEDFE71C2E0020DD
:10721400182E002000100140742404005824040097
:1072240000B583B013F03EFF68B90023019301A9B0
:10723400012013F06FFE48B901A813F0BDFE40B958
:1072440003B05DF804FB14F0E9FBEEE714F0E6FB91
:10725400F2E714F0E3FBF3E700B585B09DF80C30DA
:10726400012262F3030362F307138DF80C30112239
:107274000F4903A8FFF79AFF98B90023ADF8083027
:107284007823ADF80430C823ADF806304FF4C87342
:10729400ADF80A3001A8FFF787FF28B905B05DF8FB
:1072A40004FB14F0BBFBE8E714F0B8FBF6E700BFFF
:1072B400F423040000B58BB00023ADF80830782225
:1072C400ADF80420C822ADF806204FF4C872ADF81A
:1072D4000A200693079301AB039340F6CD4304932E
:1072E4004FF48033059303238DF81830064B08932D
:1072F400064B099303A814F0BBF810B90BB05DF862
:1073040004FB14F08BFBF9E7C5710200B5710200B0
:107314000620704700B587B041F2010398424CD073
:1073240020D944F2010398425DD044F2020398420A
:1073340074D1464B1B6813F4804F1ED0444B1B681A
:10734400002B1ADD434BD3F80435108803905268A0
:1073540002920191404A00926C224049012005F0BA
:10736400D1FD0AE0012859D1384B1B6813F4804F32
:1073740003D0374B1B68002B12DC4FF0A0434FF4B3
:10738400F012C3F81825C3F80C25EFF3108372B676
:107394004DF6AD6C324B1B78002B54D030BFF9E75F
:1073A4002C4BD3F80435029201912E4A00926022AC
:1073B4002A49012005F0A6FDDFE7244B1B6813F4DE
:1073C400804FDAD0224B1B68002BD6DD214BD3F83B
:1073D400043502920191244A009263221F4901203C
:1073E40005F090FDC9E7194B1B6813F4804FC4D016
:1073F400174B1B68002BC0DD164BD3F804351068FF
:10740400049050680390029192680192174A009286
:1074140077221249012005F075FDAEE70B4B1B687E
:1074240013F4804FA9D00A4B1B68002BA5DD094B30
:10743400D3F8043501910E4A00927B2207490120BA
:1074440005F060FD99E707B05DF804FB1C2E0020F1
:10745400182E00200010014044250400F0240400EC
:10746400C82D002004250400202504006425040000
:107474008825040000B583B00023ADF80030054B27
:1074840001936A46014644F20200FFF743FF03B04A
:107494005DF804FB8425040010B40346044C006822
:1074A40059689A68DB680FC45DF8044B704700BFE5
:1074B400D83300200B4B0C4A92E8030083E8030006
:1074C40003F10802094903C982E80300DA790421B7
:1074D40061F30712DA711A7A022161F387121A72C0
:1074E400704700BFD833002060000010A4000010D3
:1074F40000487047D833002000231F2B09D80749C0
:1075040001EBC30000224280426001F833200133C2
:10751400F3E7034B00221A60704700BFE8330020F2
:10752400E834002030B405460F4B1B6800240AE001
:107534001F230E4A12F83300A0B102EBC302528893
:10754400AA4207D001341F2C0BD85A1E002BEFD0AF
:107554001346EEE7054A02EBC30252688A42F1D1B0
:1075640000E0002030BC7047E8340020E8330020FD
:1075740030B40A4A13680A4C04EBC3056880696096
:10758400012104F833100B441360202B01D030BCCC
:107594007047134600221A60F9E700BFE834002060
:1075A400E8330020C0F30C038B4204D2C91A01440F
:1075B400A1F500507047C91A08447047C37D002BD9
:1075C40042D0C3780A7802F0800203F07F031343A9
:1075D4000B7002780B7803F07F0343EAC2130B703D
:1075E4000378002B41D030B48378082B14BF0022D9
:1075F40001224B7803F07F0343EAC2134B70C58822
:1076040003F08003C5F3861423434B708A7802F099
:10761400030242EA8502D2B28A70057A02F0FC02C1
:10762400C5F3C10422438A70CB7803F01F0343EAF5
:107634004513DBB2CB70427A03F0E00302F01F0281
:107644001343CB7030BC7047C3780A7802F0BF0292
:107654009B0103F0400313430B70027903F0C00352
:1076640002F03F0213430B70B3E770470023032B70
:107674002DD810B402E00133032B24D8C3EBC3028A
:107684001401144A224492F84820012AF3D1114AE1
:107694002244948AC2899442EDD1C3EBC3021401FB
:1076A4000C4A2244D2888A42E5D10A4A2244B2F8DA
:1076B400582012B1848AA242DDD1C3EBC3031A015C
:1076C4000448104400E000205DF8044B704700209B
:1076D400704700BF9C350020002300E00133032BDA
:1076E40014D8C3EBC3021101094A0A4492F8482092
:1076F400022AF3D1064A0A44918A828A9142EDD140
:10770400C3EBC3031A0102481044704700207047BA
:107714009C35002008B9042070470820704730B415
:1077240003460C460978C17000214162A1680B2907
:1077340003D8217B01B3012100E00121197000204D
:10774400987029B1A1680731C908013959721872B2
:107754000121D97503F10C0504F1100103C985E871
:107764000300E1899982A1691962217F9975216ACF
:10777400D9629A6230BC70470021DFE70021174BC1
:107784001B688B4227D90023154A02EBC1025268B9
:107794009A421ED910B40FE060685DF8044B70473C
:1077A40001310E4B1B688B4211D900230C4A02EBAA
:1077B400C10252689A42F3D9094A52F8312002EBC5
:1077C400C30412F833208242E6D00133EEE70020EE
:1077D400E3E70131D3E70020704700BFEC34002019
:1077E400F034002070B58CB006460D4614462C22A9
:1077F400002101A81AF002FB0F238DF80430ADF824
:1078040008604FF0000365F300038DF80A308DF82B
:107814000B4001A801F016FA0CB070BD30B58DB064
:1078240005460C462C22002101A81AF0E7FA102381
:107834008DF8043002958DF80C4001A801F002FA8D
:107844000DB030BD00B58DB010B913F1020F06D1E3
:10785400074B186804F0A2F90DB05DF804FB01228F
:107864008DF80420029301A801F0ECF9F0E700BFC1
:10787400F8340020D0B50446037853B1E3691F0AF5
:107884001E06E188A069FFF78DFE301847F100015C
:10789400D0BD7846FFF7EEFDF0E70000F8B50546E9
:1078A400002400E00134032C20D8C4EBC4031A01E3
:1078B4000F4B134493F84830022BF3D10C4B134471
:1078C4009A8AAB8A9A42EDD12846FFF7D3FF06463F
:1078D4000F46C4EBC402130105481844FFF7CAFF5E
:1078E4008F4208BF8642DDD2012000E00020F8BDAF
:1078F4009C350020F8B5064603783BB13046FFF7C7
:10790400B9FF04460D46B08A002304E07846FFF729
:10791400B1FDF3E70133072B0ED81A0107498A5A40
:107924008242F7D101EB0312D2E90267AF4208BFEA
:10793400A642EFD1104600E00020F8BD003500203B
:1079440038B504460D46037853B10023072B0ED8EF
:10795400A18A1A011248825A914205D00133F5E7EF
:107964007846FFF787FDF0E71B010021C1520D4A5D
:107974001368591C116003F00703A08A1A0108490F
:10798400885255B16278064D05EB0315AA7020465E
:10799400FFF770FFC5E9020138BD0022F3E700BF1D
:1079A4000035002080350020F8B5069C002962D0FF
:1079B4000F4616685568D2F808E0D2F80CC0E660A5
:1079C4002561C4F814E0C4F818C016695569E66165
:1079D4002562002262700278D209227062B3042107
:1079E400B9424AD8E57D4DB3017801F07F01E170D9
:1079F4000021A1709AB14278920102F4FE5281787A
:107A040042EA9102E2808278D20002F01802C17840
:107A140042EA51122272C27802F01F0262721D46BB
:107A2400002363622B78032B21D82A78144B53F854
:107A34002230E3620020F8BD0121D1E70578C5F3C7
:107A44008015E570057805F03F05257142B190F980
:107A54000110002902DB0421A170CBE70821FBE718
:107A64000425A5702944B942C4D90920E3E778461E
:107A7400FFF700FDD9E70920DDE70920DBE700BFB8
:107A8400A425040070B50C461E460378ABB104254A
:107A94002A44A26000F10C032360836A6360C36A12
:107AA400E36000232374204604F0F6FB034610B978
:107AB400626915443560184670BD0125E8E72DE973
:107AC400F0418EB00D4616461C46804600282DD047
:107AD400002D2FD0002C31D0636A0233059304F1BA
:107AE4000C00E378002B2DD00121A27801AF3B4696
:107AF400082A14BF0022012204F095F90697CDF854
:107B04001C80B2B2ADF820200B9515440C95A378D7
:107B14008DF83430237B022B16D00023ADF82830A7
:107B240005A804F078F90EB0BDE8F0817846FFF7B7
:107B3400A1FCCDE77846FFF79DFCCBE77846FFF73D
:107B440099FCC9E70221D0E723692BB12369099382
:107B54001023ADF82830E3E77846FFF78BFCF5E710
:107B64002DE9F04188B004460D46C37D002B3CD07E
:107B7400082605FB06F8637AAB4238D0257201ABC0
:107B8400324602A92046FFF77DFF074648BB4DB9A0
:107B940094F8533033B9A369C3F30C03E38001238E
:107BA40084F85330E37D7BB994F8523063B91DBB3C
:107BB400B4F84A10A27823468A1AE16E0846FFF701
:107BC4007EFF012384F8523007992046FFF7F6FC24
:107BD400E16E3246414401981AF0E7F802A804F035
:107BE40081FB384608B0BDE8F0810C26C1E7B4F843
:107BF4004A60A6EB0806C1E77846FFF73BFCD7E7E7
:107C040070B505460E4609B100230B6095F8504047
:107C1400002104E0631C85F850300134E4B26B7A2F
:107C2400A34210D3EA6C0123A3401A42F5D12146A2
:107C34002846FFF795FF014628B9002EEAD033689D
:107C440001333360E6E7084670BDF0B589B0857846
:107C54001544C37D7BB10B239D4224D816460F46A1
:107C6400044601AB2A4602A9FFF70CFF054620B1E2
:107C7400284609B0F0BD0F23EEE707992046FFF729
:107C84009DFCE37D43B13246394601981AF08DF8E4
:107C940002A804F027FBEBE7234632460199384655
:107CA400FFF70DFFF4E70925E2E7000010B50446ED
:107CB40090F84830012B0CD103F05EF9237B012BA3
:107CC4000BD0094BD968014404F1300003F02AF9C0
:107CD40010BD7846FFF7CEFBEEE7A37D024AD168DC
:107CE400126902FB0311EEE78435002030B583B03E
:107CF400002403E02846FFF7D9FF0134032C19D8E8
:107D0400C4EBC4031A010C4B134493F84830012B01
:107D1400F3D100230193C4EBC4021301064D1D44A7
:107D240001A92846FFF76CFF0428E3D0019B002B30
:107D3400E3D0DFE703B030BD9C35002038B50446FE
:107D440090F84830022B09D1064B1D6803F014F952
:107D5400411904F1300003F0E5F838BD7846FFF727
:107D640089FBF1E78435002038B5044690F84830A3
:107D7400022B10D10A4B5D7D5A689B6803FB0525D5
:107D840003F0FAF8411904F1500003F0CBF8012391
:107D940084F8683038BD7846FFF76CFBEAE700BF2B
:107DA4008435002010B50446808A02F037FC01288F
:107DB4001CD1237BE3B194F91620002A1ADBE27D5F
:107DC4004AB1022B18D094F90330002B16DBA378A8
:107DD400B3B900200BE0E2780AB9012B12D1237861
:107DE40093B9A378042B11D1002000E0102010BD1A
:107DF4001020FCE70720FAE71020F8E70720F6E751
:107E04000720F4E70720F2E70020F0E70720EEE779
:107E140038B50446C2698169808A06F055FA054678
:107E240008B9284638BDE169002201F00101A08AA1
:107E3400FFF7D8FCF5E700002DE9F04780460E4631
:107E440017464B1EDBB2012B0FD8B7F5C07F10D8F5
:107E54000024032C1AD8C4EBC4031A01304B134476
:107E640093F848304BB10134F3E77846FFF702FB4F
:107E7400EBE77846FFF7FEFAEAE7DFF8A4A0154639
:107E84005544384608F025FBE86600E000255DB35C
:107E9400EB6E002B42D043462A4608F1300ED3F84D
:107EA40000C05C689868D968C2F800C054609060EB
:107EB400D160103310327345F1D10023EB64A5F87F
:107EC4004A70012E13D06FF00103AB62002385F8D2
:107ED4006830144BAB652D66134BAB632D640120E6
:107EE40002F07CF885F848602846BDE8F0870F4B1F
:107EF4001B7D85F85130002385F8523085F85330C6
:107F040085F85030D8F828206A65A5F858306FF005
:107F14000103AB62064BAB632D64E0E70025E3E7A6
:107F24009C350020778802005D82020084350020A1
:107F3400A982020000B585B000238DF80F3098B1F6
:107F44000346084602330B600DF10F0103F067FF8F
:107F54009DF80F3043B10D4B1B6813F0040F03D091
:107F64000B4B1B68032B04DC9DF80F0005B05DF878
:107F740004FB084BD3F80435074A009240F2374219
:107F84000649042004F0BEFFEEE700BF1C2E0020CB
:107F9400182E002000100140C8260400BA26040050
:107FA4002DE9F0438FB004460E4615461F46D0F81F
:107FB4001890037823B1C1884846FFF7F3FAA0610B
:107FC40004F10C00E378002B37D00121A2780DF1E5
:107FD40028084346082A14BF0022012203F023FF85
:107FE400C4F81890CDF808800396A378EA1A92B2E0
:107FF400ADF810203244089207978DF824300023FE
:10800400ADF81830E37863B3237B022B17D02546F1
:10801400002345F8243F2A462179206A0FF0F2FA1A
:10802400606A90B101A9FFF785FF00283ED12A4676
:108034002179206A0FF0E6FAF2E70221C6E710235D
:10804400ADF8183023690593E1E7237B022B31D186
:1080540004F10C01E0890FF087FB0028D4D105203E
:1080640025E0237B012B01D0052020E0E389ADF836
:108074000030A38AADF80230002500E00135012D5F
:1080840012D82146002341F8243F0EAB03EB4503ED
:1080940033F8380C0FF0D3FA01A9606AFFF74AFFEE
:1080A4000028EBD0002002E0052000E000200FB003
:1080B400BDE8F0830520FAE770B5F0B00D4614462C
:1080C4001E4610AB0A4601462046FFF769FF50B131
:1080D400224B1B6813F0040F03D0214B1B68052BA4
:1080E4002FDC70B070BD2046FFF792FE0028F8D157
:1080F40003AB01228DF80C20A28AADF80E200022D9
:1081040004928DF8142010AA0692A278AD1AADF844
:108114001C5008AA93E8030082E803000AAB04F1A8
:108124000C0292E8030083E80300A37D8DF8383045
:10813400236A0C93636A0D930F9605A800F082FDE1
:10814400CFE7084BD3F80435074A009240F20E7289
:108154000649062004F0D6FEC3E700BF1C2E00200B
:10816400182E002000100140EC260400BA2604005A
:1081740010B50446C06E08F0B0F904F1300002F006
:10818400B9FE94F84830022B0AD070220021204610
:1081940019F034FE002084F8480001F01FFF10BDE0
:1081A40004F1500002F0A6FEEFE710B58CB00446CF
:1081B40090F84830012B0CD101238DF80430636D05
:1081C400029301A800F03EFD2046FFF7D1FF0CB05A
:1081D40010BD7846FFF74EF9EEE7000030B585B0E4
:1081E4000D460446A8B194F84830022B15D0294610
:1081F400606DFFF713FB2046FFF7BAFF114B1B68B6
:1082040013F0040F03D0104B1B68032B0ADC05B0DA
:1082140030BD7846FFF72EF9E5E700212046FFF749
:108224008FFBE4E7094BD3F8043594F84820029512
:108234000192074A009240F22E220649042004F0DB
:1082440061FEE4E71C2E0020182E002000100140DF
:10825400B4250400BA26040008B508460021FFF737
:10826400BDFF08BD08B5037B012B02D0FFF79DFFBE
:1082740008BD0121FFF7B2FFFAE7000008B590F846
:10828400513053B1013B80F85130002380F8503015
:10829400034B186803F082FC08BDFFF7E3FFFBE71C
:1082A400F834002010B50C4691F84830012B03D166
:1082B4002046FFF7E3FF10BD7846FFF7DBF8F7E74A
:1082C400062976D1F0B585B015460278910101F4FE
:1082D400FE5147788478C3781B0443EA0463047925
:1082E40043EA042344791C4356B241EA97012846E1
:1082F400FFF7BCF90746E0B1002E2FDBC289A98A3B
:108304008A422BD02B4B1B6813F0040F3ED02A4B10
:108314001B68012B3ADD294BD3F8043502910192F5
:10832400274A009240F28C622649022004F0EAFDBA
:108334002CE0204B1B6813F0040F27D01E4B1B6846
:10834400012B23DD1D4BD3F804351F4A009240F264
:1083540084621C49022004F0D5FD17E0002E17DBCF
:10836400FD6C2543FD64BCB13B78D3B17B7A5A1CC8
:1083740001239340013B9D4217D0002187F8501000
:108384003846FFF73DFC3846FFF790FC05B0F0BDDA
:10839400AB8AA7F85830E3E703213846FFF71EFFFE
:1083A400F4E77846FFF766F8E0E73846FFF7FDFEA6
:1083B400ECE770471C2E0020182E0020001001400E
:1083C4001C260400BA260400EC2504002DE9F04321
:1083D4008BB007460E4614461D461046FFF718FD9F
:1083E40050B994F80380B8F1000F08D12B46224607
:1083F40031463846FFF764FF0BB0BDE8F0834046D2
:10840400FFF7BCF981460028F6D08DF80480236A72
:108414000793A38AADF8123005AB04F10C0292E87D
:10842400030083E80300A37D8DF8203002970396B0
:1084340023788DF81030E36A0993294601A8C847C8
:10844400DAE710B5547814F0010F03D0D47D14B1D9
:10845400FFF7BCFF10BDFFF72FFEFBE708B501399E
:108464000130FFF7EEFF08BDF0B5C7B086781644BB
:10847400C37D2BB14FF48073B3427ED3002303E05A
:108484004FF4C073F8E70133032B19D8C3EBC304CB
:1084940025013C4C2C4494F84840012CF3D1394C30
:1084A4002C44A58A848AA542EDD1C3EBC3042501DB
:1084B400344C2C44E589C489A542E4D1082455E010
:1084C40014460F4632460121FFF7B6FC0546002844
:1084D40055D022463946C06E19F067FC00234593F7
:1084E40045A92846FFF78CFB044608B1042840D16F
:1084F400459B7BB9244B1B6813F0040F35D0234BE9
:108504001B68032B31DDB5F84A70802F28BF802704
:10851400002313E02846FFF7C9FBEBE7EA6ED25CC1
:108524001B490C6810095900265C04A800F8136064
:1085340002F00F020131A25C42540133BB42EDD37D
:1085440004AA002302F8173003F1804303F58833AB
:10855400D3F8043502920F4A01920F4A009240F276
:1085640071520E49042004F0CDFC0024204647B08B
:10857400F0BD2846FFF7FCFDF8E70924F6E70424DC
:10858400F4E700BF9C3500201C2E0020182E00208C
:10859400202E002060260400AC230400BA26040028
:1085A40070B504460D461646FFF7FCFB034638B982
:1085B40023783BB1324629462046FFF755FF034650
:1085C400184670BD324629462046FFF73EFB034657
:1085D400F6E7000038B504460D46CB695B780371B5
:1085E400CB691B7883F00103C370CB6943628B8A28
:1085F4000B2B07D8CB7A002B35D10B7B012B02D068
:10860400002300E001232370002B31D0287B0228B3
:108614002BD0FFF77FF8A070AB8A03440B331748C5
:1086240080FB03235B10013B63720023237200234E
:10863400E37504F10C0395E8030083E80300AB69D8
:1086440023622B89A382AB7AA3752B6AA362DF23EF
:10865400E36228460FF0B6F820B12B78012B0AD03C
:10866400FF23E36238BD0123CDE7054B987DD0E7B6
:108674000423A370DBE72023F3E700BFABAAAA2AF5
:108684008435002010B54FF4E0720021134819F02E
:10869400B5FB05F0CBFE0024114B1C608022214663
:1086A400104819F0ABFB104B104A1A60104A5A607C
:1086B4004CF250329A600F49D9601A6104221A753B
:1086C4009C7508225A750C4803F048FA0B4B186045
:1086D4000B4B1C600B4805F0ADFF10BD9C35002012
:1086E40080350020003500208435002080969800D5
:1086F400F049020020A1070069880200F834002034
:10870400EC3400204978020008B505F0D5FD08BD19
:1087140098B110B58CB00446036983B1C36983B1C1
:10872400836983B101466846FFF754FFA28A216931
:108734006846FFF735FF0CB010BD0E2070470E20C1
:10874400F9E70E20F7E70E20F5E790B110B58CB0ED
:10875400044642687AB182697AB10A46014668469B
:10876400FEF7DDFFA26861686846FFF719FF0CB0E9
:1087740010BD0E2070470E20F9E70E20F7E7000029
:10878400037B012B01D00020704710B58CB000236F
:108794000193CDF80730C288C2F3861492008DF895
:1087A40001200A0E8DF802200A0C8DF803200A0A13
:1087B4008DF804208DF805104278022A14BF002297
:1087C400012244EAC2148DF80040062205920122D7
:1087D4008DF81C20828AADF81E2008938DF80C3089
:1087E400CDF810D0026A09928DF81830C389ADF81B
:1087F4001A30C36A0B93837D43B98DF828306FF028
:10880400010103A8FFF7A1FF0CB010BD024B5B7D73
:108814008DF82830F3E700BF8435002090F8483005
:10882400022B00D0704790F86830022BFAD110B5B3
:108834000446C16CFFF7A4FF10B9002384F8683024
:1088440010BD000010B5002407E0C4EBC4021301FE
:1088540003481844FFF7E2FF0134032CF5D910BD97
:108864009C35002008B5FFF741FAFFF7EBFF012024
:1088740008BD10B50C4691F84830022B06D10223EE
:1088840084F868302046FFF7C9FF10BD7846FEF72C
:10889400F1FDF4E72DE9F0438FB00646FEF7FEFF45
:1088A400002840F08E803046FFF724F80746002861
:1088B4003CD13046FEF710FF044658B13046FEF76F
:1088C400D9FF804689462046FEF7D4FF494508BFB4
:1088D400404553D3002C75D1757A6B1CF27D002A68
:1088E40052D0082505FB03F5002A4FD04FF48073BE
:1088F400AB424ED3F188B069FEF754FEF2690146EB
:10890400B08A05F03DFD00285CD12A46022130469C
:10891400FFF792FA0446002854D100213046FFF7AD
:108924002FFF02210020FEF779FF4BE002AC354611
:108934000FCD0FC40FCD0FC495E80F0084E80F00CE
:10894400BB788DF809307BB19DF8083073B19DF880
:1089540011104B1C01219940013902A8FFF710FFA7
:10896400BB7813F0010F05D100242BE07846FEF705
:1089740081FDECE73046FFF74BFAF5E70521204689
:10898400FFF72CFC0024A7E70C25ABE74FF4C073DA
:10899400AEE70E4B1B6813F0040F03D00C4B1B689F
:1089A400002B01DC00240DE00A4BD3F804350195BB
:1089B400094A009240F292320849012004F0A2FAD6
:1089C400F0E7002420460FB0BDE8F0831C2E002001
:1089D400182E002000100140D8250400BA260400F7
:1089E4002DE9F04182B00646884615461F461046DA
:1089F400FFF750FF002847D00446434B1B6813F091
:108A0400040F03D0414B1B68032B40DC2046FFF7C7
:108A140095F9237B012B48D0E16C2A7A01239340FA
:108A2400194231D10B43E364A8F104082B7AEA7D9F
:108A3400002A42D04FF0080C0CFB03FC617A8B42F5
:108A44003ED0002A41D00823434540D1A269AB69F6
:108A54009A4209D204F10C0E0C350FCDAEE80F008A
:108A640095E803008EE80300E06E4246311D604441
:108A740019F09BF9E56C237873B3637A5A1C0123CC
:108A84009340013B9D422BD002B0BDE8F081204BC6
:108A9400D3F804352A7A01921E4A00924FF4717277
:108AA4001D49042004F02EFAB0E794F86830002B36
:108AB400B2D12046FFF758F9AEE74FF00C0CBBE7F4
:108AC4000CEB0803A4F84A30C0E70C23BCE70421EC
:108AD4002046FFF783FBD7E77846FEF7CBFCCCE7CD
:108AE400E16C2046FFF74CFE3B462246B4F84A10A0
:108AF400E06EFFF7A6FC01212046FEF721FF204689
:108B0400FFF736FBC0E700BF1C2E0020182E002004
:108B140000100140DC260400BA2604002DE9F041CF
:108B240090B0002842D08046002A41D01F46144607
:108B34000E4604AB00933B46FEF736FF054618B1DC
:108B4400284610B0BDE8F08104A8FFF72BF90546CC
:108B54000028F5D12269E168208905F011FC00287C
:108B6400EED100230293039302A960880EF0FCFD6A
:108B740038B19DF8113043F001038DF81130039B97
:108B840008939DF81130002BDAD09DF8103033B1E2
:108B94003B4604AA31464046FFF722FFD0E73B4656
:108BA40004AA31464046FFF759FCC9E70E25C7E73A
:108BB4000E25C5E7F8B500B30546164B1F68F7B98F
:108BC4000E463C46B4420ED205EBC4035B68CBB1FF
:108BD40015F8340010F0800F16D1B8B1FEF7CEFDB1
:108BE400B0B90134EEE70C4B43F8375003EBC7033D
:108BF4005E607B1C074A136002E00E2700E0042736
:108C04003846F8BD0E27FBE70B27F9E70F27F7E7F0
:108C14000F27F5E7EC340020F0340020084B1968E6
:108C240061B110B504E0064804F0D5F8214624B13A
:108C34000C680B79002BF9D0F5E710BD704700BF25
:108C44006037002038B5054630B1104B1C68ACB114
:108C54000F4B01221A7004E07846FEF70BFCF4E790
:108C640024683CB12379002BFAD154F8043C2846FB
:108C74009847F5E7064B1B78022B00D038BDFFF769
:108C8400CDFF034B00221A70F8E700BF60370020C5
:108C94005C37002010B5044630B100232372211D37
:108CA400034804F06DF810BD7846FEF7E3FBF4E7E3
:108CB4006037002010B5044658B10A4B1B78013BBD
:108CC400DBB2012B09D8074B02221A70012323724D
:108CD40010BD7846FEF7CEFBEFE7211D024804F0F5
:108CE4007AF8F5E75C370020603700200A8883684B
:108CF4009B5A07339BB223F0030313449BB20288AD
:108D0400043A934200D900230B80704710B582B017
:108D140004468368C91AADF806100DF10601FFF781
:108D2400E5FFBDF80630A068184402B010BD008805
:108D3400043880B2704743888268D018D152012326
:108D440083707047826800239370438083807047E8
:108D5400073189B221F0030189B2428883889A429B
:108D640004D29B1A99421EDC0020704710B59A4227
:108D74000FD90488A41AA14217D98B4217D3032C04
:108D840003D98368134404229A700023438018464D
:108D940004E0826813449B780BB1042010BDFFF7F4
:108DA400D1FF0020FAE7042070470020F6E70420F2
:108DB400F4E738B504460D468368828813448B4231
:108DC40002D07846FEF756FB0023AB70211D2046E7
:108DD400FFF78CFFA288A36813449B78042B00D070
:108DE40038BD0023A380FBE710B50C468368428896
:108DF40013448B4202D07846FEF73CFB0023A37059
:108E040010BD70B5064615460C46002944D0002E08
:108E140046D0B4F1005F08D94FF08053D3F80C3139
:108E240003F50023B4EB832F0ED3B4F5000F08D958
:108E34004FF08053D3F80C3103F50053B4EB832F78
:108E440002D37846FEF716FB6B1E2344B3F1005F92
:108E540008D94FF08052D2F80C2102F50022B3EB6E
:108E6400822F0ED3B3F5000F08D94FF08052D2F8F9
:108E74000C2102F50052B3EB822F02D37846FEF7A1
:108E8400F9FA042D10D9358000237380B380B460BF
:108E9400043D2580A37070BD7846FEF7EBFAB6E773
:108EA4007846FEF7E7FAB4E77846FEF7E3FAEAE72E
:108EB40038B50446A0B16288A36813449B78012B9B
:108EC40012D0EFF3108572B6A388A16819448B7889
:108ED400032B0DD02046FFF735FF05B962B638BD28
:108EE4007846FEF7C7FAE6E77846FEF7C3FAE8E7FE
:108EF4002046FFF70BFFA368C31A63800023837027
:108F0400EBE72DE9F0410E4615460446D0B1EEB12B
:108F14006288A36813449B78012B1BD025B3204699
:108F2400FFF705FFA84221D3EFF3108872B6294654
:108F34002046FFF70DFF074680B1B8F1000F16D1A8
:108F440062B614E07846FEF795FAE0E77846FEF755
:108F540091FADDE77846FEF78DFADFE729462046E9
:108F6400FFF7E9FE3060E8E7092700E00927384603
:108F7400BDE8F081F8B50C4616460546E0B1FCB1F3
:108F8400A378012B20D12388B34221D326B3EFF356
:108F9400108772B626800223A370E9182846FFF7CB
:108FA400A5FE6B88AA88934203D0AA6813440022C2
:108FB4009A7007B962B6F8BD7846FEF75BFADEE749
:108FC4007846FEF757FADBE77846FEF753FADAE716
:108FD4007846FEF74FFAD9E77846FEF74BFAD6E71C
:108FE40070B50D46044690B1ADB1EFF3108672B67C
:108FF400A288A36813449A78042A10D09A78022A83
:1090040015D0032A18D0052006B962B670BD78467B
:10901400FEF730FAE8E77846FEF72CFAE5E7211D7B
:109024002046FFF763FEA288A3681344E6E7032201
:109034009A702B600020E7E77846FEF71BFA0020C1
:10904400E2E738B5044680B1EFF3108572B6A08824
:10905400A16801448B78042B0BD08878022814BFB4
:109064000020012005B962B638BD7846FEF702FA41
:10907400EAE72046FFF74AFE0146EEE738B5044624
:1090840078B1EFF3108572B6A088A168014488789E
:10909400C31EDBB2012B08D82046FFF737FE01467A
:1090A400F5E77846FEF7E6F9EBE7022814BF00205F
:1090B400012005B962B638BD70B50C46064678B1D4
:1090C40094B1EFF3108572B6A378012B10D0032B63
:1090D40013D121463046FFF76CFE05B962B670BD68
:1090E4007846FEF7C7F9EBE77846FEF7C3F9E8E7F9
:1090F40021463046FFF778FEEFE77846FEF7BAF9E7
:10910400EBE710B5EFF3108472B6838881681944D5
:109114008B78042B06D08878B0FA80F0400904B923
:1091240062B610BDFFF7F2FD0146F4E708B5064B41
:10913400986800221A605A609A60DA601A615A616B
:109144009A6104F0C9FE08BD6437002000B585B0FB
:109154000A4BDB6802228DF8002001934FF4805300
:109164000293074A6946012001F06EF918B90120FB
:1091740005B05DF804FB0020FAE700BF6437002067
:109184008037002000B585B00A4B1B6802228DF899
:10919400002001934FF480530293074A694601204B
:1091A40001F052F918B9012005B05DF804FB002064
:1091B400FAE700BF8437002080370020164BDA68B6
:1091C400137951795B1A03F57F2303F6FF7302EBDE
:1091D40003339A4205D002F580520F4BDA60032024
:1091E400704700B585B00D4B1B6801208DF8000059
:1091F40001930B4B0393042302930A4A694601F03B
:1092040023F918B1002005B05DF804FB024B0122DC
:109214001A760220F7E700BF643700208437002065
:10922400883700208037002000B585B00C4BDA6801
:109234000C4B1B68043301208DF80000019203934A
:1092440040F6FC730293084A694601F0FDF818B928
:109254000120034B187600E0002005B05DF804FB04
:1092640064370020843700208037002000B585B0A3
:109274000A4B1B6801208DF800000193084B0393EF
:1092840004230293074A694601F0DEF818B9012065
:1092940005B05DF804FB0020FAE700BF8437002026
:1092A400703700208037002010B584B0104BDA6886
:1092B4001478104B1B68043301208DF800000193CF
:1092C400039202940C4A694601F0BEF868B9094B4E
:1092D4001B6804F0FC041C440434054B5C61D9682D
:1092E4000A780A441A61012000E0002004B010BD8D
:1092F40064370020843700208037002008B500231D
:10930400092B09D8064A52F82320824201D001339E
:10931400F6E7044A536002E07846FEF7ABF808BD6E
:10932400182704006437002010B5214BDB6853B1C3
:109334001F4B1B7E5BB91E4B5B68092B26D97846F5
:10934400FEF798F822E07846FEF794F8F0E77846BE
:10935400FEF790F8EFE7164A536801335360092B80
:1093640021D97846FEF786F81DE0114B00225A6099
:1093740019E00F4B1B7E1BB10D4B02221A7012E039
:10938400FFF7D4FE0FE00A4B1B7E83B9084B5A68E3
:10939400084B53F82230984704460228E9D00328A2
:1093A400E3D00128D7D0012CEDD0032CEBD010BD95
:1093B4006437002018270400104B1B681B685A1ED2
:1093C40012F1030F18D8C3F30B020AB1002070473F
:1093D40010B50B4AD360002313765376012414701E
:1093E40093600848FFF78AFF0749204601F01AF8FE
:1093F400FFF79AFF204610BD0020704784370020F5
:1094040064370020519102001194020008B50B78D2
:10941400032B06D00B4B1B78012B06D0022B0BD051
:1094240008BD084B00221A76F4E7064B1B7E002B7E
:10943400F6D1FFF779FFF3E70B78032BF0D1FFF7B1
:1094440075FEEDE76437002000B585B0174BDB6887
:1094540018784FF6FF7203F58051184405F0A0F810
:10946400F0B10246114BD9680B780B44984219D0DD
:109474000E4B5B7E93B10E4B01208DF800000192E0
:109484000393042302930B4A694600F0DDFF58B9A5
:109494000120064B187605B05DF804FB064BEBE79C
:1094A4000120F8E70120F6E70020F4E76437002004
:1094B40098290400803700209429040008B5104B33
:1094C400DB681878002203F58051184405F068F829
:1094D40008B1012008BD0A4BDA68137951795B1A87
:1094E40003F57F2303F6FF7302EB03339A4205D09F
:1094F40002F58052024BDA600320EBE70220E9E731
:1095040064370020F0B585B0514BDD686A792B795A
:10951400591E8A4214D005F580510C780C444D49EB
:109524000968081D0E7906449B1A05EB0335638808
:10953400013B9BB247F6FE62934260D927461BE08B
:109544000120434B58767EE07846FDF793FF16E002
:1095540027F47F6323F00F0303F580531A78134431
:109564009D4247D99C4247D25A88013A92B21F463B
:1095740047F6FE618A4210D93B88002BE4D03B8831
:1095840007EB830323F47F6222F00F029342DFD0C0
:109594007A88B2F5FE4FE3D1DAE71C462FE078462D
:1095A400FDF768FF16E027F47F6323F00F0303F54C
:1095B40080531A7813449D4220D99C423BD25A8846
:1095C400013A92B21F4647F6FE618A4210D93B889F
:1095D400002BE4D03B8807EB830323F47F6222F063
:1095E4000F029342DFD07A88B2F5FE4FE3D1DAE777
:1095F4001C4604E0002402E0002400E00024E4B15E
:10960400144B1968628801F58051304604F0C8FF94
:10961400064690B101200E4B18768DF80000019497
:109624000D4B0393042302930C4A694600F00CFF8C
:1096340058B92746CBE70024E1E7B4FA84F4640977
:10964400034B5C76012005B0F0BD0020FBE700BFB2
:1096540064370020843700209029040080370020DC
:109664002DE9F04186B0644B1B6923B1624B5B6901
:109674002BB1002748E07846FDF7FCFEF6E7784674
:10968400FDF7F8FEF5E77846FDF7F4FE17E028F459
:109694007F6323F00F0303F580531A7813449E422B
:1096A4001FD99C4221D25A88013A92B2984647F671
:1096B400FE618A4213D9B8F80030002BE3D0B8F821
:1096C400003008EB830323F47F6222F00F029342FD
:1096D400DDD0B8F80220B2F5FE4FE0D1D7E71C4642
:1096E40000E000241CB1009438E00024FAE70023D1
:1096F4000093019B002B5AD10127002C76D062885D
:1097040047F6FF739A4271D0002F73D13A4B5A69CE
:1097140022F47F6525F00F05AD1A05F580551C6907
:10972400DE68337972799B1A06EB033600230193C2
:109734006388013B9BB247F6FE629342D3D9A046AD
:10974400B9E77846FDF796FE23E024F47F6424F01D
:109754000F0404F58054237823441C46A642C8D938
:109764002388019A02EB83029542C2D9009B63408D
:1097740023F47F6323F00F03002BBAD16388013BEA
:109784009BB247F6FE618B42B3D801922388002B2B
:10979400D7D0238804EB830323F47F6222F00F02E3
:1097A4009342D2D06288B2F5FE4FD6D1CDE7124AA9
:1097B400526901208DF808000392009A05920493DF
:1097C4000E4A02A900F040FE70B90B49019B23F038
:1097D40003024B6913444B6114B1074B1C618CE7C2
:1097E4007846FDF747FEF8E7002000E0012006B0C8
:1097F400BDE8F0810120FAE76437002080370020BB
:1098040008B54FF010235B69B3F1FF3F09D04FF067
:1098140010235B692BB14FF010235B69A3F58053D0
:1098240005E04FF080525169136903FB01F3A3F57E
:109834008053024A1360FFF7BFFD08BD8437002040
:1098440010B50446B0B1104B1B78BBB10E4BD968B0
:10985400E3685879A3EB0032914211D31A79121AB2
:1098640002F57F2202F6FF7203EB0233994209D814
:10987400012004E07846FDF7FDFDE4E7002010BD7B
:109884000020FCE70020FAE764370020024B187838
:10989400003018BF012070476437002010B504461B
:1098A4000E4B1B7893B92378032B13D10B4B9C607D
:1098B400E268DA6000225A601A76012018705A763B
:1098C400074900F0AFFDFFF72FFD10BD7846FDF707
:1098D400D1FDE8E77846FDF7CDFDE7E764370020E2
:1098E40011940200014B1868704700BF84370020B0
:1098F40010B5044680B163681BB123680BB1A3683B
:1099040013B97846FDF7B6FDA3685A1E134207D172
:109914000023E360236110BD7846FDF7ABFDEAE761
:109924007846FDF7A7FDF3E770B5F0B10446836808
:10993400EBB1EFF3108572B60369C068834210D0AF
:10994400084621686268A668013E334003FB0211A1
:1099540008B118F02AFA2369013323614DB962B6BC
:1099640008E005B962B6052504E00E2502E00925E4
:1099740000E00025284670BDC0F30B033BBB41B398
:1099840001F6FF71090B144B0222C3F80425124B94
:10999400D3F80034002BFAD0002202E000F5805006
:1099A40001328A4208D20C4BC3F808050A4BD3F89B
:1099B4000034002BFAD0F1E7074B0022C3F804254A
:1099C400054BD3F80034002BFAD000207047102048
:1099D40070470920704700BF00E0014010F0030FFA
:1099E4002FD111F0030F2FD182B312F0030F2FD117
:1099F40010B49208174B0124C3F80445154BD3F84F
:109A04000034002BFAD002E0043004312246541E04
:109A140052B10B68B3F1FF3FF6D003600D4BD3F89E
:109A24000034002BFAD0EFE70A4B0021C3F80415E9
:109A3400084BD3F80034002BFAD010465DF8044BE1
:109A440070471022104670471022FBE70922F9E7FD
:109A54000922F7E700E001404388012B05D0022BDF
:109A640001D1043008600120704704304860FAE7EF
:109A740008B508220221084804F09FF838B1074AC3
:109A840091684160127B027204F0D0F808BD04486A
:109A940004F0FAF9FAE700BF94370020E037002019
:109AA400DC2D00200E4B1B78CBB910B50D4B5C6838
:109AB40004F50054B4F1807F00D910BD04220121C3
:109AC400094804F07AF830B14460054A0121117064
:109AD40004F0ACF8F1E7054804F0D6F9EDE7704777
:109AE400F4370020E037002094370020CC2D0020EC
:109AF40010B5044608B1A04710BD7846FDF7BAFC7E
:109B0400F9E7000008B501210C4804F0B7F820B9C2
:109B140002210A4804F0B2F828B1094804F0B4F963
:109B2400FFF7C0FF08BD074A00231360536093602A
:109B3400D3601361044A1370F2E700BF9437002026
:109B4400FC2D0020E0370020B837002000B58DB090
:109B54000B4B1B7B012B0ED0094A926804928DF8A3
:109B64000830039002238DF8043001A8FFF76AF847
:109B74000DB05DF804FB024A9268013A0492EEE7E4
:109B8400E037002010B58CB00C4682B94B88012B0D
:109B940020D1134B1B7833B16268124B5A60104BBF
:109BA40000221A7016E07846FDF764FCF4E7032AF5
:109BB40012D12C22002101A818F020F911238DF8CC
:109BC40004300394084BDA6805921B69069301A8D4
:109BD400FFF738F80CB010BD7846FDF74BFCE8E70A
:109BE400F4370020E03700209437002000B583B01C
:109BF40001F03CFF0021009101916B46134A144887
:109C040003F0D0FE009B63B1019A52B11868114968
:109C140088601879087393420BD950B900220A60FE
:109C24000AE00C4B00221A609A601A73FFF720FFB7
:109C340002E01268074B1A60064B1A685A60FFF775
:109C440031FF01F057FF03B05DF804FB5D9A020099
:109C540094370020E037002008B504F069F9A0F536
:109C6400805008BD00B587B0002300930193029390
:109C7400039304930593FFF7EFFF009001230193EF
:109C8400064B03936946064804F0AFF810B907B0D1
:109C94005DF804FB034804F0F7F8F8E7899B020039
:109CA40094370020EC2D002010B50B4B00241C60D1
:109CB4005C609C60DC601C6101F05EF9074B5860DD
:109CC400074A9A60074ADA601C615C61064B1C70A3
:109CD400FFF7C8FF10BD00BFE0370020BC370020ED
:109CE4001D9E020000879303F537002008B5084B3A
:109CF4001B7803B108BD0748074B036000F05CFE06
:109D0400064801F0D1F8024B01221A70F2E700BFB5
:109D140090370020D4370020459F0200BC37002034
:109D240010B501F0A3FE164B1B7B0BBB144B9B7BA6
:109D34001BBB134B1A8A41F282639A4204D8114B1B
:109D44001B782BB1012300E001231BB9082410E088
:109D54000023FAE70A4B01221A7300241C829A6832
:109D640001329A60FFF784FE2046FFF7EFFE00E021
:109D7400082401F0BFFE204610BD0824F9E700BF07
:109D8400E0370020F537002010B501F06FFE204BBE
:109D94005B7B9BB11E4B9B7BF3B91D4B1A8A41F233
:109DA40082639A4204D81B4B1B782BB1012300E039
:109DB40001239BB1012302E00023FAE700231C46A0
:109DC4000BB3134B00225A731B7B4BB1012B0ED0E8
:109DD4007846FDF74FFB16E00023F0E70023EEE79B
:109DE400FFF79EFF78B17846FDF744FB0BE0084B84
:109DF40000201860586018731882FFF7A7FEFFF759
:109E040037FEFFF74FFE01F075FE204610BD00BF80
:109E1400E0370020F537002008B5214B1B7B7BB1D0
:109E2400012B20D07846FDF725FB1D4A138A013308
:109E340013821B4B5B8A13B1013B194A538208BD41
:109E4400174B1A8A41F282639A4204D8154B1B7845
:109E54003BB1012300E00123002BE6D0FFF794FF80
:109E6400E7E70023F8E70E4B1B8A41F28262934234
:109E740004D80C4A127872B1012200E00122002AAF
:109E8400D3D042F2B012934207D9054B01225A7340
:109E9400FFF77AFFCDE70022F1E7FFF775FFC4E78C
:109EA400E0370020F537002010B5244B1B7B002B36
:109EB40035D10446214B5B8A2BBB1AB91F4B9B68D7
:109EC4008B4205D3FAB11D4B9B6801338B421AD2E6
:109ED4001A4B9B682A338B4223D3184B9B7B03BBBF
:109EE400164B996000221A605A601A8242F6065193
:109EF40059825A731A73FFF7BBFDFFF7D3FD20464F
:109F0400FFF724FE0DE062B10C4B9B6801338B42DA
:109F140007D10A4B01225A73FFF736FF01E0012BE8
:109F240000D010BD002AFCD1044B9B688B42F8D1B1
:109F3400024B01225A73FFF727FFF2E7E0370020B4
:109F44000378042B00D0704743681B78002BFAD0A9
:109F540010B58468027E437E012A14BF00220122C8
:109F6400416904F11000FFF79FFF10BD10B5184BB5
:109F74001A685B689A4226D20446154B1B7B012B58
:109F840014D0144B9A4213D2114B1A685B68403BAD
:109F94009A4215D2EFF3108172B60D4A1368581C19
:109FA4001060236001B962B6002010BD0A4BE9E7D6
:109FB400074B01225A73FFF7E7FE0028EAD1E3E7D3
:109FC400FFF770FDE6E7FFF76DFD0F20EDE700BF3B
:109FD400E0370020FFFF7F0000E0FF0008B538B144
:109FE4000D4B01229A730D4A13680133136008BDA7
:109FF4000A4B1B685BB1094A1368013B1360002BD1
:10A00400F5D1054B00229A73FFF7BEFEEFE77846C1
:10A01400FDF730FAEFE700BFE03700208C3700206F
:10A0240000B58DB0ADF808008DF81020039103231E
:10A034008DF8043001A8FEF705FE0DB05DF804FBB1
:10A04400014B9868704700BFE0370020054B1B7B2D
:10A05400012B02D0034B98687047024B9868013873
:10A06400704700BFE0370020044B9B68584010F055
:10A07400010F00D0013B1846704700BFE0370020B5
:10A08400014B187B704700BFE037002038B50B4BFD
:10A094001B780BB1082038BD084B01221A70084DFB
:10A0A400A8602973FFF7E4FC0020FFF74FFD0024AC
:10A0B4002C606C60FFF7F6FC2046ECE7B837002014
:10A0C400E03700202DE9F041002722E02449BC2399
:10A0D40003FB04F3CA5A0132CA520221404602F079
:10A0E400C0FC01360221404602F08BFC70B11C4AD0
:10A0F400BC2303FB04239D68002DE7D0BC2303FB92
:10A1040004F3D25A01463846A847DFE796B9013727
:10A11400FFB2022F20D83C46BC2303FB07F30833CD
:10A124000F4D1D4405F104080221404602F069FC6C
:10A134000026DBE70021404602F0FBFC0828E6D1BC
:10A14400074BBC2202FB0434A368002BDFD000229F
:10A15400044938469847DAE70120BDE8F08100BF9A
:10A16400003800204027040008B508238373102317
:10A17400437300F11C0343610323037300F11803C9
:10A1840003610C3002F0A7FC08BD000008B5037899
:10A19400012B06D0022B07D07846FDF76BF900207F
:10A1A40003E04FF4A97000E0004808BD645E0100BC
:10A1B40008B50278012A07D0022A13D07846FDF7A1
:10A1C40059F94FF4FA7308E083685B1A98084FF45E
:10A1D400A97303FB00F303F5FA730748984228BFF9
:10A1E400184608BD83685B1A180B044B03FB00F385
:10A1F40003F5FA73F1E700BF60850100645E0100B6
:10A2040038B5044601210C3002F0FBFB054678B159
:10A21400084BC4F89C300023C4F8A0306168FFF7F1
:10A22400C7FFC4F8A800C4F8AC40012384F8B830D0
:10A23400284638BD59A3020010B50446FFF7E0FFD5
:10A2440020B104F19C000EF033F800B910BD78463B
:10A25400FDF710F9FAE70000F8B506460C46174674
:10A2640015680378012B18D11249A1FB0431C909DF
:10A274008900B468641B8C4200D30C468CB17068AE
:10A2840025F00305F168224629442844FFF7A6FB7C
:10A2940058B93B681C443C60F8BD7846FDF7EAF8C1
:10A2A400E2E77846FDF7E6F8E9E77846FDF7E2F8F5
:10A2B400EFE700BFEB5DF260F8B507460C461646C3
:10A2C40015680378022B16D1114BA3FB04231B0C36
:10A2D4001B03BC68641B9C4200D31C467CB1786899
:10A2E40025F0030521462844FFF746FB58B9336897
:10A2F4001C443460F8BD7846FDF7BCF8E4E77846C2
:10A30400FDF7B8F8EBE77846FDF7B4F8EFE700BFE0
:10A31400B77609BB38B505460C4611462378012BA0
:10A3240006D0022B0FD07846FDF7A4F8002304E0F2
:10A33400021D2046FFF790FFA3686868984214BF87
:10A344000020012038BD021D2046FFF7B5FFA36899
:10A35400F3E700002DE9F8438846D1F8A860234BC1
:10A364001B7863B90546A6F5FA7601F10C090121BB
:10A37400484602F046FB074640B1002424E00DF0B5
:10A38400D3FF002388F8B830BDE8F8837846FDF79A
:10A3940071F8F2E70DF0C8FF0121484602F061FBB5
:10A3A4000023C8F8043088F8B830114B186801F05D
:10A3B400F5FB4046FFF740FFE6E72C1A3846FFF767
:10A3C400E5FE2044B0420BD8321B39464046FFF725
:10A3D400A1FF0028DED101F021FA441BEED5ECE701
:10A3E4000DF0A2FF4046FFF727FFCDE7FC37002022
:10A3F400F837002010B5084801F0B0FB074B18608F
:10A404000024022C07D8064BBC2000FB0430FFF7C5
:10A41400ABFE0134F5E710BDC9A00200F8370020F7
:10A424000038002038B504460D46022805D8054BEF
:10A43400BC2202FB0434A56038BD7846FDF71AF847
:10A44400F5E700BF003800202DE9F84306460C4626
:10A454001746022816D8CCB12378012B1AD0022B28
:10A464003ED16368C3F30B03002B31D1A368C3F35C
:10A474000B03002B30D1A368002B34D17846FCF7B2
:10A48400F9FF30E07846FCF7F5FFE4E77846FCF79F
:10A49400F1FFE1E7636813F0030F0DD1E36813F0F4
:10A4A400030F0DD1A36813F0030F0DD1A368D3B923
:10A4B4007846FCF7DFFF16E07846FCF7DBFFEDE7B4
:10A4C4007846FCF7D7FFEDE77846FCF7D3FFEDE7D6
:10A4D4007846FCF7CFFFC9E77846FCF7CBFFCAE71D
:10A4E4007846FCF7C7FFEFF3108872B6BC2505FB6E
:10A4F40006F505F108032A4D1D44043500212846BC
:10A5040002F07FFA814678B30021284602F0A9FAC6
:10A5140020686168A268E368C9F80000C9F80410FB
:10A52400C9F80820C9F80C302FB11D4ABC2303FB1D
:10A5340006235B883B801A4ABC2303FB06235A8804
:10A5440001325A8093F8B83083B9164B1B7813B193
:10A554000024A1460CE0124BBC2000FB0630FFF7A0
:10A564004FFE8146002403E0042401E00024A146B8
:10A57400B8F1000F00D162B6B9F1000F09D0BC20C8
:10A5840000FB06F698360648304404300DF090FE81
:10A5940010B92046BDE8F8837846FCF76BFFF8E76E
:10A5A40000380020FC37002038B50446EFF310854E
:10A5B40072B610B9164B1B6873B18CB1144A136888
:10A5C40001331360124B1B68003318BF0123114A77
:10A5D400137005B962B638BD7846FCF74BFFECE75B
:10A5E4000B4B1C68013C1C6034B1EBE7BC2000FB46
:10A5F4000420FFF721FE0134022CE3D8064ABC23D1
:10A6040003FB042393F8B830002BF4D1EEE700BF2A
:10A61400343A0020FC3700200038002018B1830BA6
:10A62400024AD05C70470020704700BF50270400E6
:10A6340012DF704700B583B01378A3B1022B14D096
:10A64400002110F8013C163B152B31D8DFE803F04C
:10A6540059303030303030303030303030303030CD
:10A664003030302E0F3A517DEBE70721E9E702291C
:10A6740001D007291CD110F8021C013901F0E8FEB1
:10A68400B0B1264B1B6813F0400F11D0244B1B684C
:10A69400012B0DDD234BD3F804350190224A00929F
:10A6A40093222249022002F02DFC01E0022902D06B
:10A6B40003B05DF804FB10F8021C0139C9B213F0B1
:10A6C400F9FAF5E70229F3D110F8021C0139C9B2ED
:10A6D40003F0E4FE0028EBD0104B1B6813F0400F8E
:10A6E400E6D00F4B1B68012BE2DD0E4BD3F804358B
:10A6F40001900F4A0092A6220C49022002F002FCAB
:10A70400D6E701884FF6E4639942D1D110F8021CD0
:10A7140003390230FCF7FCFDCAE700BF1C2E002001
:10A72400182E002000100140D4270400C62704007E
:10A734000028040070B58AB00EF070FB48B30646DA
:10A7440000238DF8103005AC05460FCD0FC42B68DF
:10A754002360727D052A04D9337D03F00F03072B90
:10A764001ED1174B1A688AB104AB0393337DC3F32C
:10A7740003038DF80430737D062B1BD9063B8DF83B
:10A78400053006F11D03029301A8904730460EF0F0
:10A7940025FB0EF05FFB80F00100C0B20AB070BD73
:10A7A400307D04AB063A06F11D0100F00F000DF0F8
:10A7B4007DF8D6E700238DF805300293E4E700BF67
:10A7C4003C3A00200B4B1B78032B00D0704700B59C
:10A7D4008DB0084B04221A702C22002101A817F016
:10A7E4000DFB1C238DF8043001A8FEF72BFA0DB0E5
:10A7F4005DF804FB383A002070B582B0354B1B7805
:10A80400002B5CD100285ED0067A0F2E01D0062ED4
:10A814005BD1044605F05CFEE06870B1FCF73CFED9
:10A824000DF10700FFF704FF0546002848D19DF805
:10A834000730012B04D0022542E0FCF73BFEEFE792
:10A84400FCF75AFE00F01CFB304601F0BDF8E0783E
:10A8540000F040F900F0AEFE0DF0ACFC1E480EF026
:10A8640095FB0DF0C5F9FFF7C5FD04F00BFF00F0F3
:10A8740001FD05F0EDFD05F0B5FB204601F0F4FC0B
:10A88400FDF700FF04F000FAFCF742FD08B10628CA
:10A894001DD112480CF0ECFF2A200DF07DF82B207E
:10A8A4000DF07AF829200DF077F816200DF074F8E1
:10A8B4000B4B00221A60074B01221A7000E0082596
:10A8C400284602B070BD0E25FAE70725F8E70546CD
:10A8D400F6E700BF383A002039A702000C2E00200A
:10A8E4003C3A002010B582B01E4B1B78012B0DD0D2
:10A8F4005AB282B3033BDBB2012B2ED80DF0C8FC55
:10A90400044658BB174B02221A7027E00EF044FA93
:10A9140001F0BCFCFDF7F8FEFCF7FAFC0446B8B104
:10A92400062815D0104B1B6813F4804F16D00F4B1C
:10A934001B68012B12DD0E4BD3F8043501900D4A30
:10A94400009240F2A7120C49022002F0DBFA05E063
:10A9540001F066F8D2E7082400E00824204602B09B
:10A9640010BD00BF383A00201C2E0020182E0020F5
:10A974000010014054270400C627040008B50A4B00
:10A984001B78022B02D00823184608BD064B03226D
:10A994001A7006480DF030FC03460028F4D07846BF
:10A9A400FCF768FD0023EFE7383A0020C9A702004E
:10A9B40008B5FDF7ADFE08BD08B5FEF76BF908BD97
:10A9C40008B5FEF777F908BD08B500F0B9FD002019
:10A9D40008BD08B507F078F808BD0000064A1368FA
:10A9E40001331360B3F1704F02D0034B1868704702
:10A9F400134601221A60F8E7403A002010B50446D5
:10AA040018B100232360636010BD7846FCF732FD63
:10AA1400F7E738B50C46054668B184B10023636096
:10AA2400EFF3108372B62A686AB16A6854606C6086
:10AA340003B962B638BD7846FCF71CFDEDE77846ED
:10AA4400FCF718FDEAE72C60F1E710B5044658B1AD
:10AA5400EFF3108372B6206808B14268226022685E
:10AA640032B103B962B610BD7846FCF703FDEFE7D7
:10AA74006260F6E710B5044608B1206810BD784658
:10AA8400FCF7F8FCF9E735DF70473CDF70473DDF42
:10AA94007047000010B504464FF0FF30FFF7F3FF96
:10AAA400FF210020FFF7F3FF21460020FFF7EDFF11
:10AAB400BFF34F8F0549CA6802F4E062044B1343A5
:10AAC400CB60BFF34F8F00BFFDE700BF00ED00E098
:10AAD4000400FA05072814D8DFE800F0080C150470
:10AAE400110F0A066420704714207047FA2070473B
:10AAF4001E2070474FF4FA707047322070474B2085
:10AB04007047FA207047962070470000024B58683F
:10AB1400103840B2704700BF00ED00E00346002843
:10AB24000FDB5B11084A52F82330424200F01F0049
:10AB340002F01F0258BF504223FA00F000F0010057
:10AB4400704700F11F03ECE700E100E046DF7047C7
:10AB5400F8B504460D464B1EDBB2012B09D8002282
:10AB640022616261A261E2612046FFF7EFFF0120EA
:10AB74000AE07846FCF77EFCF1E7CB7B5B00CB7305
:10AB8400002F14DB0130C0B2A84217D8214611F9B6
:10AB9400207F00230E2BF0D8CA5CCE185200D2B20C
:10ABA400767842EAD612CA5401339BB2F2E794F89B
:10ABB4002F3083F0870384F82F30E3E7F8BD2DE9C5
:10ABC400F04190B084460C4696461F4602F10F06AB
:10ABD40036111FFA86F804AD0068DCF80410DCF8BE
:10ABE4000820DCF80C300FC50EF00F05B8F1000F8B
:10ABF40002D07DB1002300E00023984663B1012117
:10AC040004A8FFF7A5FFB8F1000F1AD0701E0001C9
:10AC140010230EE00123F0E70221F1E7013B9BB290
:10AC24002218D25C10A9194411F8101C4A400DF8DE
:10AC34000320002BF2D100250C950D950E950F9550
:10AC440026E0711EADB22A4604EB0111684617F0E6
:10AC5400ACF880230DF805306B1C03E000220DF8DE
:10AC6400032001330F2BF9DD10230AE0013B9BB2D3
:10AC74001DF8032010A9194411F8101C4A400DF8BE
:10AC84000320002BF2D1D6E704A8FFF75FFF0135BC
:10AC9400731EAB420FDD28011023002BF4D0013BBF
:10ACA4009BB210AA1A4412F8102C2118C95C4A400D
:10ACB40008A9CA54F1E710230AE0013B9BB210AA89
:10ACC400D11811F8402C11F8101C4A4008A9CA5494
:10ACD400002BF2D104A8FFF739FF0CAC0FCC38607D
:10ACE4007960BA60FB6010B0BDE8F08110B504462D
:10ACF400134B1B684BB14068114B1B685B68C31A4C
:10AD0400002B02DB0E4B19680DE00D4B1A686261D3
:10AD14001C600B4A938801339BB2938063B1012377
:10AD2400237010BD19464B691BB15A68121A002AC8
:10AD3400F8DB63614C61ECE77846FCF79BFBEEE7DC
:10AD4400483A002038B505461CE07846FCF792FBEB
:10AD54006369204A13600023636193889BB2591E80
:10AD640089B29180F3B1A36803B302232370A3686B
:10AD740021692846984700F0FFF805462378DBB29E
:10AD8400022B17D0134B1B681BB3124B1B685B6859
:10AD94005B1B642B1DD50F4B1C682378DBB2012B86
:10ADA400D6D0D2E77846FCF765FBDCE77846FCF7BB
:10ADB40061FBDAE7E26812B900232370E2E7636813
:10ADC400134463605B1B642BF9D42046FFF78EFFAA
:10ADD400D8E738BD483A002010B50446144B1B6828
:10ADE400834207D0124B1B68D3B15A69A2420ED0DA
:10ADF4001346F9E743690E4A136093889BB2591EC0
:10AE040089B2918063B97846FCF734FB08E0626943
:10AE14005A6107498B889BB25A1E92B28A8013B139
:10AE24000023237010BD7846FCF724FBF8E700BF2D
:10AE3400483A002008B5064B1B6833B1044B1B6825
:10AE44000449586800F046F908BD00F0A1F9FBE791
:10AE5400483A002075AE020008B500F08DF8FFF7FF
:10AE640071FF00F089F8FFF7E5FF012008BD00003D
:10AE740008B5024B186800F091FE08BD443A002062
:10AE840008B5064B00221A605A60054800F066FEB9
:10AE9400044B186000F063F808BD00BF483A002076
:10AEA4005DAE0200443A002010B5044600F04AFFAB
:10AEB40080B19CB1A368ABB12378DBB2012B15D070
:10AEC400002363612046FFF711FF00F055F8FFF7F8
:10AED400B1FF10BD7846FCF7CDFAEAE77846FCF7F7
:10AEE400C9FAE7E77846FCF7C5FAE5E77846FCF7E0
:10AEF400C1FAE5E710B5044600F024FF50B16CB187
:10AF04002046FFF769FF0023636100F035F8FFF77F
:10AF140091FF10BD7846FCF7ADFAF0E77846FCF7F0
:10AF2400A9FAEDE738B504460D4600F00BFF70B101
:10AF34008CB12046FFF750FF002363616560204613
:10AF4400FFF7D4FE00F018F8FFF774FF38BD784619
:10AF5400FCF790FAECE77846FCF78CFAE9E708B5D9
:10AF640016F0D6FD00B108BD16F050FD0028FAD049
:10AF74007846FCF77FFAF6E770B4EFF3108172B607
:10AF8400184B1A68184BD3F80455D3F80431012B25
:10AF940022D001B962B645EA026500266B01EA0EC9
:10AFA4005B1B62EB0602510241EAD351580243197A
:10AFB40041EB0600810141EA93619A01D31A61EBE6
:10AFC40000005B1946EB000013F580437041DB0B76
:10AFD40043EA404070BC7047034BD3F80455013238
:10AFE400D7E700BF503A00200010014010B50A4BCB
:10AFF4004FF40032C3F84823C3F80823074B1B68F7
:10B004002BB1064B1C68FFF7B7FFA04710BD78466D
:10B01400FCF730FAF5E700BF001001405C3A00206D
:10B02400EFF3108172B6264B0022C3F80421254A9F
:10B0340013680133136001B962B6234B1B68002BFC
:10B044003DD0214B1A68013A1A601B68002B36D197
:10B0540003F1804303F58833D3F804251B4B1B68A5
:10B064009A421ED2EFF3108272B6154BD3F8043510
:10B074000133164909688B4210D3114BD3F80435B8
:10B0840002330F49C1F8443502B962B60C4B4FF490
:10B094000032C3F84423C3F8042370470B4B1B68E6
:10B0A400EFE710B50A4B1B682BB1094B1C68FFF77F
:10B0B40063FFA04710BD7846FCF7DCF9F5E770475D
:10B0C40000100140503A0020543A0020583A002021
:10B0D4005C3A002030B583B00446002301930D464A
:10B0E400002936D0244B1D60FFF746FF031B002BBD
:10B0F40033DB0023590CD803204C214A00230019C8
:10B104004FF0000444EB010116F008FDEFF3108347
:10B11400019372B61B4BD3F80435022838BF0220C2
:10B12400C3F1FF1202F57F42824218D30344154A49
:10B13400C2F844354FF40033C2F84433C2F8043340
:10B14400114A1460114A1460019B03B962B603B03A
:10B1540030BD7846FCF78EF9C4E7231ACAE70344E6
:10B1640003F17F4301331A0E013207490A6023F0C9
:10B174007F43064A1360E7E75C3A002020A10700FA
:10B1840040420F0000100140543A0020583A002079
:10B19400074B4FF40032C3F84823C3F808230023B5
:10B1A400044A1360044A1360044A1360704700BFE2
:10B1B40000100140543A0020583A00205C3A002024
:10B1C40030DF704731DF704710B402684368A2EB88
:10B1D4007312846883EAF4330360C1680C444460E6
:10B1E400114481601344C36018465DF8044B7047F2
:10B1F40070B582B00D46064608B100240BE07846CF
:10B20400FCF738F9F9E79DF807103019FFF7DAFF72
:10B214009DF807301C44A5420DD90DF10700FFF736
:10B22400CFFF9DF80730002BF7D02A1B9342EAD9B1
:10B234008DF80720E7E702B070BD000030B583B099
:10B2440005460024019404210DEB0100FFF7D0FF13
:10B25400074B2B60019B6B60AB60EB6003E02846FF
:10B26400FFF7B2FF0134132CF9D903B030BD00BF8E
:10B27400ED5EEAF1704748DF704749DF70474ADF07
:10B2840070470000044B01225A7143F2B0629A6085
:10B2940043F69822DA607047AC3A0020094B032247
:10B2A4001A74094A5A611A6840F6D8639A4204D952
:10B2B400054B43F2B0629A607047034B40F6D86284
:10B2C4009A6070478C3A0020AC3A002008B50F4BC6
:10B2D4001B78022B12D0032B08D0012B03D0784605
:10B2E400FCF7C8F80EE0022303740BE0084B0022BD
:10B2F4005A71084999600849D9608271032303741B
:10B30400034B4361014B00221A7008BDBD3A002073
:10B31400AC3A0020A0860100FF1FA10738B50446FF
:10B3240000250574012343710E4A13680133136029
:10B3340000F0D2FA0DF072F823680B4A1168283134
:10B3440001FB03F1094AA2FB0121A3EB9141084A45
:10B354007839284600F03CFA00B938BD7846FCF745
:10B3640089F8FAE7C03A0020A83A002083DE1B439C
:10B37400A1B2020010B5044600238360C3600368D1
:10B384000D4A92680260817991B10121017403B977
:10B394000A4B991A6161B1F57A7F01D39A4202D9B5
:10B3A4004FF47A736361FFF76DFF0123A37110BD3E
:10B3B400FFF7B4FFF7E700BFAC3A0020809698008F
:10B3C40010B50C4631B1C3680133C36042690368E8
:10B3D4001344036083680133836001220274426969
:10B3E40052084261012B0DD0022B19D04269036827
:10B3F400134417498B4222D840F6D7639A4221D886
:10B4040000231DE0B2F5FA7F05D040F6D8639A42D6
:10B41400ECD84361EAE7002CF7D100234361E5E768
:10B42400C368022B06D0012BE0D1002CDED100230F
:10B434004361DBE70268064B9B1A4361D6E70023AE
:10B4440013B110BD0123FBE7FFF768FFF9E700BF65
:10B454008096980043791BB90D4B00221A707047EF
:10B4640010B504460CF0F6FF20680A4B1B6828331D
:10B4740000FB03F3084AA2FB0323A0EB93407838B4
:10B4840000F05AFA00236371014B00221A7010BDB8
:10B49400BC3A0020A83A002083DE1B4308B5254BA4
:10B4A40001221A71244B1B7813B1244B1B781BB354
:10B4B400204B00221A7404281AD8DFE800F0031481
:10B4C400110C07001B48FFF755FF1CE00121194828
:10B4D400FFF776FF17E000211648FFF771FF12E02F
:10B4E4000CF048FF0FE000F0B9F90CF07DFF0AE022
:10B4F4007846FBF7BFFF06E000F090F90D4B1860AB
:10B504001846FFF7E3FE0B4B1B7C023BDBB2012B1F
:10B5140008D9084B1B7C022B08D006480023037172
:10B52400103008BD0348FFF795FFF2E7014B0122F5
:10B534001A76F2E78C3A0020BD3A0020BC3A00208B
:10B5440008B50438042814D8DFE800F018261403DA
:10B554000E00164B1B7E012B0BD1FFF78EFE40B164
:10B564007846FBF787FF04E0104B00221A760CF0B4
:10B5740095FF08BD7846FBF77DFFFAE7FFF782FEEB
:10B584000B4840F6D8638360FFF779FE0028F0D0BB
:10B594007846FBF76FFFECE70548FFF770FE0028DD
:10B5A400E7D07846FBF766FFE3E700BF8C3A00205C
:10B5B400AC3A002010B40E4A002313701371012119
:10B5C400517143F2B064946043F69824D460094AFC
:10B5D4001060094A1370094A1370094A1360094A32
:10B5E400137153711360137691715DF8044B7047B6
:10B5F400AC3A0020A83A0020BC3A0020BD3A002012
:10B60400C03A00208C3A002008B5104B1B7E012B59
:10B6140009D05AB21AB1022B16D0002008BD0C482A
:10B62400FFF729FE40B90B48FFF729FE40B9074B45
:10B6340002221A760020F1E77846FBF71BFFF2E7B7
:10B644007846FBF717FFF2E71120E7E78C3A002072
:10B65400A1B40200AC3A00200B4B1B7C023BDBB2D2
:10B66400012B0BD9094B1B78012B09D0022B09D0D4
:10B67400032B01D000207047012070470120704740
:10B6840001207047012070478C3A0020BD3A002009
:10B69400014B1868704700BF8C3A00200D4B5B7952
:10B6A4000BB90020704710B50A4B1C680A4B1B6885
:10B6B400283303FB04F3094AA2FB0323A4EB9344BA
:10B6C400783C00F0ABF80346201A00D410BD181BD8
:10B6D400FCE700BF8C3A0020A83A002083DE1B431D
:10B6E400014B5879704700BF8C3A0020014B187900
:10B6F400704700BF8C3A0020024B187E003018BF00
:10B70400012070478C3A0020EFF3108372B6054A8B
:10B71400527922B1044A4FF48071C2F8001103B97E
:10B7240062B670478C3A002000E100E008B5054B92
:10B734001B7E022B00D008BD034B01221A70FFF7B9
:10B74400E3FFF8E78C3A0020BD3A002008B5074B28
:10B754001B7E022B00D008BD012805D00222044B19
:10B764001A70FFF7D1FFF6E70322F8E78C3A0020BE
:10B77400BD3A002008B5094B1B782BB148B9084BDA
:10B784001B7813B1012300E00023044A107013B99D
:10B7940008BD0023F9E7FFF7B7FFF9E7BC3A00203B
:10B7A400BD3A002010B4094B00F15002002443F8C4
:10B7B400224000F110040122A240C3F8042300F542
:10B7C400A87043F820105DF8044B704700800040D7
:10B7D400022817D810B5EFF310840C4B1C6072B616
:10B7E4000B4B43F820200B4B002243F820200A4B3C
:10B7F4001B7823B9054B186830B962B610BDFFF742
:10B80400D1FFF7E7072070470020F7E7D43A00207C
:10B81400C43A0020E03A0020D03A0020EFF310822E
:10B824000A4B1A6072B60A4B1B7863B1094B0022AB
:10B83400C3F84C210122DA64D3F84C05034B1B688E
:10B8440003B962B67047044B1868F7E7D43A00208E
:10B85400D03A002000800040D83A00202DE9F04181
:10B86400002411E00027174B43F82470012303FA46
:10B8740005F5154EC6F80853FFF7D0FFC04704F18D
:10B88400500346F823700134022C18D804F15003F5
:10B894000D4A52F82330002BF5D0D2F8043304F1CA
:10B8A4001005EB4013F0010FEDD0064B53F8248044
:10B8B400B8F1000FD6D17846FBF7DCFDD2E7BDE83E
:10B8C400F08100BFC43A002000800040014B1B6897
:10B8D40018447047DC3A002010B50023022B0DD821
:10B8E400104A03F5A871002042F8210003F1500129
:10B8F40042F8210052F821200133EFE70A4B1B687C
:10B904001BB90A4B4FF480721A60094B01221A705A
:10B91400FFF732FB0446FFF781FF201A054B18603E
:10B9240010BD00BF00800040D43A002000E100E0D8
:10B93400D03A0020DC3A00200023022B08D8002251
:10B944000B4941F823200B4941F823200133F4E744
:10B95400094B1860094B00221A70094B4FF0FF3253
:10B96400C3F80823074B4FF48072C3F88021704753
:10B97400C43A0020E03A0020D83A0020D03A00200F
:10B984000080004000E100E008B503783BB1012BE2
:10B9940004D1436813B1C1688068984708BD4368FF
:10B9A400002BFBD080689847F8E70000044B1B7815
:10B9B4000F2B04D0034B4FF48022C3F800217047AF
:10B9C400343C002000E100E010B5104C2070104819
:10B9D400104B0360102343608360FDF789FF0E481A
:10B9E400FFF70CF823780F2B0FD0072B0AD8EC2283
:10B9F4001A4112F0010F05D05B01DBB2074A82F84D
:10BA0400123302E07846FBF735FD10BD343C0020CC
:10BA1400EC3A0020003B0020383C002000E100E02C
:10BA240008B50F4B1B780F2B19D00E4B93F812331C
:10BA34005A09EC23134113F0010F0DD00A4B9B68F4
:10BA44002BB1094A136843F48023136007E0054BC4
:10BA54004FF480221A6002E07846FBF70BFD08BD24
:10BA6400343C002000E100E08C57002038B5EFF3AF
:10BA7400108472B6194A1368591C116003BB184B21
:10BA84001B780F2B1CD0EFF3108272B6154B9B68FA
:10BA9400E3B9144901238B60134BD3F88000134D91
:10BAA40028400860C3F88050D3F8840048604FF001
:10BAB400FF31C3F884100E4B0021197002B962B62D
:10BAC400064B1B6833B104B962B638BD084B01217B
